:1000000034C4000063C4000061C400005FC4000089
:100010005DC400005BC4000059C4000057C4000068
:1000200055C4000053C4000051C400004FC4000078
:100030004DC400004BC4000049C4000047C4000088
:1000400045C4000043C4000041C400003FC4000098
:100050003DC400003BC4000039C400000C943033A0
:1000600035C400000C94FA320C94D0322FC4000036
:100070002DC400002BC4000029C4000027C40000C8
:1000800025C4000023C4000021C400001FC40000D8
:100090001DC400001BC4000019C400000C947A3376
:1000A00015C4000013C4000011C400000FC40000F8
:1000B0000DC400000BC4000009C4000007C4000008
:1000C00005C4000003C4000001C40000FFC3000019
:1000D000FDC30000FBC30000F9C30000F7C300002C
:1000E000F5C3000000000000003E5B4F5B3E3E6B2E
:1000F0004F6B3E1C3E7C3E1C183C7E3C181C577DC2
:10010000571C1C5E7F5E1C00183C1800FFE7C3E70D
:10011000FF0018241800FFE7DBE7FF30483A060E1F
:100120002629792926407F050507407F05253F5A66
:100130003CE73C5A7F3E1C1C08081C1C3E7F1422D6
:100140007F22145F5F005F5F06097F017F00668981
:10015000956A606060606094A2FFA29408047E04C7
:100160000810207E201008082A1C08081C2A0808ED
:100170001E101010100C1E0C1E0C30383E383006AD
:100180000E3E0E06000000000000005F00000007A9
:10019000000700147F147F14242A7F2A12231308D7
:1001A000646236495620500008070300001C2241B3
:1001B000000041221C002A1C7F1C2A08083E080857
:1001C0000080703000080808080800006060002007
:1001D000100804023E5149453E00427F40007249EA
:1001E0004949462141494D331814127F102745458E
:1001F00045393C4A494931412111090736494949A4
:1002000036464949291E0000140000004034000011
:10021000000814224114141414140041221408027A
:10022000015909063E415D594E7C1211127C7F49ED
:100230004949363E414141227F4141413E7F494942
:1002400049417F090909013E414151737F0808086E
:100250007F00417F41002040413F017F081422413F
:100260007F404040407F021C027F7F0408107F3E99
:100270004141413E7F090909063E4151215E7F0906
:10028000192946264949493203017F01033F40406D
:10029000403F1F2040201F3F4038403F6314081458
:1002A0006303047804036159494D43007F41414190
:1002B0000204081020004141417F04020102044071
:1002C00040404040000307080020545478407F28F5
:1002D0004444383844444428384444287F385454EB
:1002E000541800087E090218A4A49C787F0804040E
:1002F0007800447D40002040403D007F10284400AD
:1003000000417F40007C047804787C08040478383D
:1003100044444438FC1824241818242418FC7C086D
:10032000040408485454542404043F44243C4040EA
:10033000207C1C2040201C3C4030403C442810289D
:10034000444C9090907C4464544C440008364100E6
:100350000000770000004136080002010204023C60
:100360002623263C1EA1A161123A4040207A38542F
:1003700054555921555579412254547842215554A8
:10038000784020545579400C1E52721239555555FB
:1003900059395454545939555454580000457C41E6
:1003A0000002457D420001457C407D1211127DF026
:1003B000282528F07C545545002054547C547C0A50
:1003C000097F4932494949323A4444443A324A4819
:1003D00048303A4141217A3A42402078009DA0A01D
:1003E0007D3D4242423D3D4040403D3C24FF24246F
:1003F000487E4943662B2FFC2F2BFF0929F620C08E
:10040000887E090320545479410000447D413048DE
:10041000484A32384040227A007A0A0A727D0D1921
:10042000317D2629292F28262929292630484D4083
:1004300020380808080808080808382F10C8ACBA7F
:100440002F102834FA00007B000008142A142222FE
:10045000142A14085500550055AA55AA55AAFF5547
:10046000FF55FF000000FF00101010FF00141414CF
:10047000FF001010FF00FF1010F010F0141414FC17
:10048000001414F700FF0000FF00FF1414F404FC34
:10049000141417101F10101F101F1414141F001015
:1004A0001010F0000000001F101010101F1010108E
:1004B00010F010000000FF1010101010101010109D
:1004C000FF10000000FF140000FF00FF00001F10DD
:1004D000170000FC04F414141710171414F404F497
:1004E0000000FF00F714141414141414F700F71488
:1004F0001414171410101F101F141414F4141010D7
:10050000F010F000001F101F0000001F140000007A
:10051000FC140000F010F01010FF10FF141414FF72
:10052000141010101F00000000F010FFFFFFFFFF6D
:10053000F0F0F0F0F0FFFFFF0000000000FFFF0F01
:100540000F0F0F0F3844443844FC4A4A4A347E02A5
:10055000020606027E027E02635549416338444426
:100560003C04407E201E2006027E020299A5E7A5DB
:10057000991C2A492A1C4C7201724C304A4D4D304C
:100580003048784830BC625A463D3E494949007E71
:100590000101017E2A2A2A2A2A44445F4444405108
:1005A0004A444040444A51400000FF0103E080FFBC
:1005B000000008086B6B083612362436060F090F48
:1005C00006000018180000001010003040FF010164
:1005D000001F01011E00191D1712003C3C3C3C008D
:1005E000000000007FBFDFEFF7FBFDFE8040201022
:1005F0000804020100002100240027002A002D0029
:100600003000330001010000040107010A0100006D
:100610000A0B02090C0D0E0807030401000000007C
:1006200000000000000000000000000000000000CA
:100630000000000000000000000012111000000087
:1006400000000000000000000000000000000000AA
:100650000000000004E010021C07123732292D2987
:10066000252B3900010310E110031D07062E2C294C
:100670002D2E2E373F0000021013800A29806402BD
:100680002A040000007F2B040000009F0F018096C9
:100690001180FFB103012C2DB203012C2DB30601F3
:1006A0002C2D012C2DB40107C003A20284C101C569
:1006B000C2020A00C3028A2AC4028AEEC5010E20C1
:1006C000003601C83A01054E6F74206120737570C1
:1006D000706F7274656420424D502076617269615A
:1006E0006E742E0046696C65206E6F7420666F759F
:1006F0006E642E00537563636573732100496D61E9
:1007000067652064696D656E73696F6E733A20006A
:100710005175657279696E6720346C6F6B6F2E62EC
:100720006D7020696D6167652073697A652E2E2E64
:10073000004F4B2100534420626567696E282920D1
:100740006661696C656400496E697469616C697A97
:10075000696E672066696C6573797374656D2E2E9A
:100760002E00496E697469616C697A656400486538
:100770006C6C6F21205354373778782054465420BE
:1007800054657374004661696C656420746F2072EF
:100790006561642066726F6D204448542073656EF5
:1007A000736F722100000020002300260029002C16
:1007B000002F0032000001000003010601090100C2
:1007C000002200250028002B002E003100340002FA
:1007D000010000050108010B0105050505070508D5
:1007E000080808020202020A0A08080404040401B4
:1007F00001010101010101030303030303030304D6
:100800000707070C0C0C0C0C0C0C0C020202020665
:10081000060606060606060B0B0B0B0B0B0B0B0155
:100820000210202008081020401020408002010201
:1008300001080402010102040810204080804020C9
:100840001008040201800402018040201008040204
:100850000108040201010204081020408001020482
:1008600008102040800099349E3D11241FBECFEF18
:10087000D1E2DEBFCDBF00E00CBF13E0A0E0B2E0EC
:10088000EAE8F7E800E00BBF02C007900D92AA3F2C
:10089000B107D9F728E0AAEFB3E001C01D92A53552
:1008A000B207E1F714E0C4E3D4E000E006C021970A
:1008B0000109802FFE010E947741C333D10780E0F8
:1008C0000807A9F70E94D4350C94B44399CBEBE800
:1008D000F4E0A089B18982E08C93A485B5851C924F
:1008E000A685B7858FEC8C93108EA489B58986E098
:1008F0008C93A289B3898C9180618C93A289B389EE
:100900008C9188608C93A289B3898C9180688C9338
:100910000288F389E02D80818F7D80830895CF92B6
:10092000DF92EF92FF92CF93DF93B0914508A0E062
:100930008111AB2F8091460890E0880F991FAC0180
:100940004B55584FC0904B08D0904C08E0904D0844
:10095000F0904E0830E020E0FA01C591D491E88192
:10096000B90190E080E0EB23EA130AC02F5F3F4F0C
:100970006C157D058E059F0578F36FEF7FEFCB013A
:10098000DF91CF91FF90EF90DF90CF9008952F925D
:100990003F924F925F926F927F928F929F92AF920F
:1009A000BF92CF92DF92EF92FF920F931F93CF935C
:1009B000DF93CDB7DEB76D970FB6F894DEBF0FBEED
:1009C000CDBF3A8729871C870B87FE86ED86D88A9C
:1009D000CF86F90171836083F80151834083F6016A
:1009E00011821082F7011182108220908F053090C1
:1009F000900520918D052C83F0908A052F2D30E0F5
:100A0000388F2F8B36E0F39E5001112420917E0504
:100A100030917F053E832D83E0908B0538E0E39E87
:100A20006001112491012C5F3F4F3A8B298B2E5F7F
:100A30003F4F3C8B2B8B245031093A8F298F2A5FF3
:100A40003F4F3B832A8398878F8344244A94542CB6
:100A5000AFEFBFEF8FEF9FE79C8F8B8F0FEF1FE7FD
:100A6000EF81F8858191F887EF83882309F4C4C06A
:100A70002114310409F48BC08A3051F4EA81FB81DE
:100A800084918E9D400D511D112470E060E0E8CFEF
:100A90008D3031F3E989FA899491EB89FC892491AD
:100AA0008917F0F22817E0F2E98DFA8D259134913B
:100AB000891BF7E08F9F200D311D1124F90132961B
:100AC00084918983319694919D8B319684918E8BFC
:100AD000319684912A5F3F4FF901F491FD8F2C816B
:100AE000222301F13981632E712C680E711C87FD60
:100AF0007A942F89388D629E4001639E900C729E7D
:100B0000900C1124860E971E2D813E8128153905E3
:100B10004CF4EA81FB8194919E9D400D511D11245E
:100B200070E060E02F2D382F3203C0011124860FB2
:100B3000971F2E2D3D8D3203F00111249F01240FAC
:100B4000351F801791070CF48C01EB8DFC8D2E174F
:100B50003F0714F43C8F2B8FF981FF9D800D911D71
:100B600011240197A817B9070CF4DC018D898E9D1B
:100B7000200D311D112421503109421653060CF469
:100B800029019E899F9D600D711D112469CF8A30B6
:100B900019F44C0D5D1D79CF8D3009F461CF2C8196
:100BA000222361F0C501860F971F2D813E812817F2
:100BB000390724F44C0D5D1D70E060E09501260FAF
:100BC000371FC9010197A817B9070CF4DC01C6014A
:100BD000840F951F0197481659060CF42C016017D5
:100BE00071070CF48B018B8D9C8D4817590714F4F9
:100BF0005C8F4B8FB90134CFA017B1075CF0E9854A
:100C0000FA8511830083A01BB10B1196ED85FE853B
:100C1000B183A0832B8D3C8D421653066CF0EB857F
:100C2000FC8531832083421A530AFFEF4F1A5F0A73
:100C3000EF85F889518240826D960FB6F894DEBF39
:100C40000FBECDBFDF91CF911F910F91FF90EF901D
:100C5000DF90CF90BF90AF909F908F907F906F90DC
:100C60005F904F903F902F900895AF92BF92CF9298
:100C7000DF92EF92FF920F931F93CF93DF936C015C
:100C80007B018B01040F151FEB015E01AE18BF083D
:100C9000C017D10759F06991D601ED91FC910190EF
:100CA000F081E02DC6011995892B79F7C501DF91F7
:100CB000CF911F910F91FF90EF90DF90CF90BF9059
:100CC000AF900895FC01448155816081718186E770
:100CD00095E0CBCF0895FC01538D448D252F30E056
:100CE000842F90E0821B930B541710F0CF96089539
:100CF00001970895FC01918D828D981761F0A28D66
:100D0000AE0FBF2FB11D5D968C91928D9F5F9F732B
:100D1000928F90E008958FEF9FEF0895FC01918DE1
:100D2000828D981731F0828DE80FF11D858D90E04E
:100D300008958FEF9FEF0895FC01918D228D892FEB
:100D400090E0805C9F4F821B91098F7399270895D3
:100D50008BE894E0F1DF21E0892B09F420E0822F79
:100D60000895FC01A48DA80FB92FB11DA35ABF4F40
:100D70002C91848D90E001968F739927848FA6899A
:100D8000B7892C93A089B1898C91837080648C93EE
:100D9000938D848D981306C00288F389E02D80819D
:100DA0008F7D80830895EF92FF920F931F93CF93CF
:100DB000DF93EC0181E0888F9B8D8C8D98131AC096
:100DC000E889F989808185FF15C09FB7F894EE897D
:100DD000FF896083E889F9898081837080648083DA
:100DE0009FBF81E090E0DF91CF911F910F91FF9025
:100DF000EF900895F62E0B8D10E00F5F1F4F0F73CD
:100E00001127E02E8C8D8E110BC00FB607FCFACF88
:100E1000E889F989808185FFF5CFCE01A2DFF2CF85
:100E2000EB8DEC0FFD2FF11DE35AFF4FF0829FB7C2
:100E3000F8940B8FEA89FB8980818062D0CFEF9292
:100E4000FF920F931F93CF93DF938C017B01D0E030
:100E5000C0E0F701EC0FFD1F6491662331F0C8017B
:100E6000A2DF892B11F02196F4CFCE01DF91CF9133
:100E70001F910F91FF90EF900895CF93DF93EC01B6
:100E8000888D8823B1F0AA89BB89E889F9898C917A
:100E900085FD03C0808186FD0CC00FB607FCF7CF2F
:100EA0008C9185FFF2CF808185FFEDCFCE0159DF98
:100EB000EACFDF91CF91089580E090E0892B21F077
:100EC00047DF81110E94000080E090E0892B49F00B
:100ED00080E090E0892B29F00E94000081110E949F
:100EE000000080E090E0892B49F080E090E0892BC1
:100EF00029F00E94000081110E94000080E090E033
:100F0000892B49F080E090E0892B29F00E940000B5
:100F100081110C9400000895282F30E0F901E25F60
:100F2000F94F9491F901E15EF74F44912752384F00
:100F3000F9012491222309F435C0992311F191502C
:100F40009231F8F4E92FF0E08827E655F84F8F4FFB
:100F50000C947741DB07DF07BC07D307D707C1072E
:100F6000E207E807EC07F207F607FA0700080408AB
:100F7000C10708080E081208809180008F778093BF
:100F80008000E22FF0E0EE0FFF1FE154F84FA59133
:100F9000B4918FB7F894EC91611148C040954E23FD
:100FA0004C938FBF0895809180008F7DE8CF809112
:100FB0008000877FE4CF84B58F7784BDE2CF84B58E
:100FC0008F7DFBCF8091B0008F778093B000D9CF19
:100FD0008091B0008F7DF9CF809190008F778093C2
:100FE0009000CFCF809190008F7DF9CF80919000BD
:100FF000877FF5CF8091A0008F778093A000C1CF2D
:101000008091A0008F7DF9CF8091A000877FF5CFE0
:10101000809120018F7780932001B3CF80912001B0
:101020008F7DF9CF80912001877FF5CF4E2BB8CFF0
:10103000CF93DF9390E0FC01E15EF74F249187525C
:10104000984FFC0184918823C9F090E0880F991F84
:10105000FC01EC50FA4FA591B491FC01E154F84F1A
:10106000C591D49161110DC09FB7F8948C912095D2
:1010700082238C938881282328839FBFDF91CF917F
:101080000895623051F49FB7F8943C91822F809577
:1010900083238C93E8812E2BEFCF8FB7F894EC91BC
:1010A0002E2B2C938FBFEACF3FB7F8948091710419
:1010B00090917204A0917304B091740426B5A89B1A
:1010C00005C02F3F19F00196A11DB11D3FBFBA2FDA
:1010D000A92F982F8827BC01CD01620F711D811D9A
:1010E000911D42E0660F771F881F991F4A95D1F71F
:1010F00008958F929F92AF92BF92CF92DF92EF921C
:10110000FF926B017C01D0DF4B015C01C114D10463
:10111000E104F104B1F0C8DF681979098A099B0973
:10112000683E73408105910588F321E0C21AD10819
:10113000E108F10888EE880E83E0981EA11CB11C1E
:10114000E5CFFF90EF90DF90CF90BF90AF909F9052
:101150008F9008952FB7F89460916D0470916E048C
:1011600080916F04909170042FBF0895CF92DF9209
:10117000EF92FF920F931F93CF93DF93CDB7DEB71C
:10118000C054D1400FB6F894DEBF0FBECDBFE2DF32
:1011900000914708109148082091490830914A0869
:1011A0006B017C01C01AD10AE20AF30A9701860199
:1011B000003D17402105310590F480914F08C05C37
:1011C000DE4F0FB6F894DEBF0FBECDBFDF91CF91DB
:1011D0001F910F91FF90EF90DF90CF900895609353
:1011E0004708709348088093490890934A081092E2
:1011F0004208109241081092400810923F08109245
:101200003E0862E08091430813DF61E070E080E017
:1012100090E06FDF61E0809143080ADF60E0809139
:1012200043087ADE809144088551823010F58BE2C4
:1012300091E10197F1F762E080914308F9DE809136
:10124000500890E08230910538F0880F991F880F80
:10125000991F05970197F1F7F89480E060DB6F3FE5
:101260007F4F8F4F9F4F59F410924F08789480E032
:10127000A6CF64E170E080E090E03BDFDCCF81E06E
:101280004EDB6F3F7F4F8F4F9F4F71F38E010F5F8C
:101290001F4F6E012FEBC21A2EEFD20A780180E0A9
:1012A0003EDBF701608371838283938381E037DBC8
:1012B000F7016483758386839783F8E0EF0EF11C52
:1012C000EC14FD0461F7789430E020E0F801C08070
:1012D000D180E280F3804481558166817781FFEF80
:1012E000CF16DF06EF06FF0631F04F3F8FEF5807AE
:1012F0006807780719F410924F08B9CFF90183E015
:10130000F595E7958A95E1F7E25CF74F8081880FC4
:10131000C416D506E606F70610F180832F5F3F4F0F
:10132000085F1F4F2832310589F64091420820910D
:101330003E0880913F08280F3327331F80914008D3
:10134000280F311D80914108820F932F911D9927FD
:101350004817190681F681E080934F0830CF8160ED
:10136000DCCFCF92DF92EF92FF92CF93FFDE882304
:1013700041F0809144088C3009F45BC038F48B3024
:10138000F1F060E070E080EC9FE74DC08551823065
:10139000C0F7C09140086C2F70E0762F6627662753
:1013A0007F7780914108682B90E080E00E94F43EB6
:1013B0002DEC3CEC4CEC5DE30E94553F56C0609137
:1013C000400870E090E080E00E94F43E6B017C01F8
:1013D000C0914108C7FF0AC0AC019B0160E070E00A
:1013E00080E89FEB0E946E406B017C01CF706C2FF8
:1013F00070E090E080E00E94F63E2DEC3CEC4CEC7E
:101400005DE30E94553FA70196010E946F4026E6CA
:1014100036E646EE5FE30E94553F20E030E040E0D4
:1014200052E40E946F40CF91FF90EF90DF90CF90F9
:101430000895C09140086C2F70E090E080E00E9419
:10144000F43E6B017C01609141086F7070E090E0A8
:1014500080E00E94F63E2DEC3CEC4CEC5DE30E94FB
:10146000553FA70196010E946F40C7FFD0CF90580B
:10147000CECFCF92DF92EF92FF9278DE882349F0B1
:10148000809144088B3028F08D3040F085518230B7
:1014900030F160E070E080EC9FE71CC060913F0895
:1014A00070E090E080E00E94F63E2DEC3CEC4CECCD
:1014B0005DE30E94553F6B017C0160913E0870E046
:1014C00090E080E00E94F63E9B01AC01C701B601AE
:1014D0000E946F40FF90EF90DF90CF900895609151
:1014E0003E0870913F0876276727762790E080E0D6
:1014F0000E94F43E2DEC3CEC4CEC5DE30E94553F29
:10150000E9CF20912204260F3327331F21323105E2
:10151000ECF420914604FC0190E080E0243069F076
:1015200082E00895A09122042191AC014E5F5B4FAF
:10153000A40FB52FB11D2C930196861798F38091B7
:101540002204680F6093220480E0089581E00895EA
:101550008FEF9FEF08958FEF9FEF08958091FB032A
:1015600090E09195819591090895CF93DF93CB01F8
:10157000EA01642FC6DFCE01DF91CF910895CF93AA
:10158000DF931F92CDB7DEB7698361E0CE0101968C
:10159000B8DF81E090E00F90DF91CF9108958EBD8C
:1015A0000DB407FEFDCF08958FEF8EBD0DB407FE7D
:1015B000FDCF8EB508950F931F93CF93DF93EC016A
:1015C000C9DD8B01F1DF8F3F61F0C4DD601B710B62
:1015D000C617D707B8F780E0DF91CF911F910F9121
:1015E000089581E0F9CFDC01ED91FC910480F58153
:1015F000E02D1994EF92FF921F93CF93DF93FC019C
:10160000208111E020FF13C0EC017C01F7E0EF0E18
:10161000F11C4B815C816D817E81E981FA819701AA
:1016200080819181E0DF182F811108C010E0812FA7
:10163000DF91CF911F91FF90EF900895E981FA819A
:101640008681823021F088818E7F8883F0CF8881E7
:1016500081FFF9CF4B815C816D817E818585968587
:10166000A785B089480F591F6A1F7B1F970180818A
:101670009181B9DF8111E7CFD9CFCF92DF92EF927D
:10168000FF921F93CF93DF93EC016A017B01122F2E
:101690008B819C81AD81BE818C159D05AE05BF05FA
:1016A000A9F0CE01A7DF81110AC090E080E0DF91B0
:1016B000CF911F91FF90EF90DF90CF90089512FF90
:1016C0000CC01882CB82DC82ED82FE82137088818E
:1016D000182B1883CE010796EACFE981FA81808121
:1016E0009181DC01ED91FC910190F081E02D9E0152
:1016F000295F3F4FB701A60119958111E2CFD5CFE0
:101700008F929F92AF92BF92CF92DF92EF92FF9211
:10171000CF931092F00541E050E060E070E040931C
:10172000F4055093F5056093F6057093F7052BEEDD
:1017300035E030930E0620930D0610920C064FEF05
:101740005FEFBA0140930F065093100660931106A5
:1017500070931206882309F451C020E040E050E065
:10176000BA018CE096E089DF009759F480E0CF91D0
:10177000FF90EF90DF90CF90BF90AF909F908F90B1
:101780000895FC01E254FE4F20812F7779F78A53A8
:101790009E4FFC01C080D180E280F380C114D1044F
:1017A000E104F10419F320E0B701A6018CE096E012
:1017B00064DFFC01892BD1F28385948581159240E9
:1017C000A9F6A0898FEF8A0F823080F686859785EB
:1017D000892B61F2A093F10595859093ED058FEF2C
:1017E000890F8093EE05C0E081E0981769F0CF5F24
:1017F000C93041F488E08093EF05B8CFC12CD12CDB
:101800007601D1CF880FF1CFC093EF0526893789B4
:1018100050E040E02115310521F424A135A146A175
:1018200057A12093F8053093F9054093FA0550939A
:10183000FB058685978546015701880E991EA11CD8
:10184000B11C8092000690920106A0920206B0920E
:101850000306818992899093F3058093F205B0E0A5
:101860000E944F40DC01CB01880D991DAA1DBB1DB4
:101870008093080690930906A0930A06B0930B067E
:101880002189328945E0220F331F4A95E1F7215023
:101890003E4F232F33272695820F931FA11DB11D85
:1018A0008093FC059093FD05A093FE05B093FF0582
:1018B00083889488B12CA12C8114910421F480A0F8
:1018C00091A0A2A0B3A0C81AD90AEA0AFB0AC80CC0
:1018D000D91CEA1CFB1C04C0F694E794D794C79467
:1018E000CA95D2F7D701C6010196A11DB11D8093FB
:1018F000040690930506A0930606B093070685EFAD
:10190000C8168FE0D806E104F10428F48CE0809337
:10191000F00581E02CCF80E125EFC2162FEFD20633
:10192000E104F104A0F384A595A5A6A5B7A580932D
:10193000080690930906A0930A06B0930B0680E26E
:10194000E6CF4F925F926F927F928F929F92AF926B
:10195000BF92CF92DF92EF92FF920F931F93CF939C
:10196000DF9300D000D0CDB7DEB79A8389836A01B8
:101970007B0148015901DC0115968C911597803245
:1019800009F042C055968D919D910D90BC91A02D6E
:10199000E7E07695679557954795EA95D1F7480F13
:1019A000591F6A1F7B1F23E089819A81819665DE1A
:1019B0000097C1F480E026960FB6F894DEBF0FBE04
:1019C000CDBFDF91CF911F910F91FF90EF90DF90EE
:1019D000CF90BF90AF909F908F907F906F905F90CF
:1019E0004F900895E894C7F8DD24EE24FF24CC0C32
:1019F000DD1CCC0CDD1C8C0D9D1DFC0180829182B8
:101A0000A282B38281E0D7CF8031E9F4A981BA8183
:101A100055964D915D916D917C9158974D0D511D4D
:101A2000611D711D23E0CD01819627DE009711F223
:101A3000DD24EE24FF24CC0CDD1C8C0D9D1DFC014F
:101A400011830083DFCF8C3009F0B4CF8A01169563
:101A50000795040F151FC801892F99278695A9811D
:101A6000BA8155964D905D906D907C905897480E38
:101A7000591E611C711C9196BE83AD8323E0B30196
:101A8000A201CD01FADD009709F494CF1170282D41
:101A9000FC01E00FF11FB701A60141705527662731
:101AA000772749835A836B837C83C0FE07C02081DC
:101AB0002F7060E1869EA0011124242B20830F5FEC
:101AC0001F4F011572E0170779F4B301A2014F5FB0
:101AD0005F4F6F4F7F4F23E08D819E81CEDD00975A
:101AE00009F468CF10E000E024E0B694A79497943E
:101AF00087942A95D1F7282DFC01E00FF11F8981E9
:101B00009A81AB81BC81892B8A2B8B2B31F420816C
:101B1000207F82948FE088222829208373CF2F9200
:101B20003F924F925F926F927F928F929F92AF926D
:101B3000BF92CF92DF92EF92FF920F931F93CF93BA
:101B4000DF934230510561057105A0F48FEFDF91FD
:101B5000CF911F910F91FF90EF90DF90CF90BF90AA
:101B6000AF909F908F907F906F905F904F903F903D
:101B70002F900895FC01C18CD28CE38CF48CC41698
:101B8000D506E606F70610F319016A017B01EC01A0
:101B900085818032C1F585899689A789B08DE7E076
:101BA0007695679557954795EA95D1F7480F591F50
:101BB0006A1F7B1F22E0CE0181965FDD009731F224
:101BC000E894C7F8DD24EE24FF24CC0CDD1CCC0CFB
:101BD000DD1C8C0D9D1DFC0180809180A280B38056
:101BE000FFE0BF22898D9A8DAB8DBC8D881599053C
:101BF000AA05BB0508F46FC0F10180829182A28220
:101C0000B38281E0A4CF8031E1F4458956896789A8
:101C1000708D4D0D511D611D711D22E0CF0181960A
:101C20002CDD009709F492CFDD24EE24FF24CC0CA8
:101C3000DD1C8C0D9D1DFC0180809180B12CA12CA0
:101C4000D1CF8C3009F082CF8A0116950795040F09
:101C5000151FC801892F992786954588568867885A
:101C6000708C480E591E611C711C5F01F1E2AF0EB1
:101C7000B11C22E0B301A201C501FFDC009709F409
:101C800065CF1170FC01E00FF11F8080912C0F5F78
:101C90001F4F011522E0120771F4B301A2014F5F3B
:101CA0005F4F6F4F7F4F22E0C501E7DC009709F4DB
:101CB0004DCF10E000E0800F911FFC018081982A39
:101CC000C0FE06C084E0969487948A95E1F7B6CF6B
:101CD000FFE09F22B3CF80E03ACFFC019C01255F5B
:101CE0003F4F80E080FB879587F99191890F2E17F0
:101CF0003F07C1F708950F931F93CF93DF93DC0144
:101D00002C91211106C081E0DF91CF911F910F919D
:101D10000895EC018A8182FF38C04C895D896E8903
:101D20007F898E819F8121E08196A7DC009729F42D
:101D300089818160898380E0E7CFEC81FD81EF704C
:101D4000FF2725E0EE0FFF1F2A95E1F7E80FF91FA7
:101D5000309771F38081853E59F3888183FF08C0F5
:101D6000888D998DAA8DBB8D848F958FA68FB78F07
:101D70008C8D9D8D938F828F8C8D9D8DAE8DBF8D23
:101D8000B58BA48B8A818B7F8A830E811F81C801CA
:101D9000819630DC882361F2F80180819181DC0139
:101DA000ED91FC910280F381E02D1995882309F4CF
:101DB000BFCFA9CF4F925F926F927F928F929F92E7
:101DC000AF92BF92CF92DF92EF92FF920F931F9349
:101DD000CF93DF93EC014A015B014C845D846E84F8
:101DE0007F84A881AA2309F485C0488959896A8912
:101DF0007B89481559056A057B0569F081149104B2
:101E0000A104B10451F41C861D861E861F86888A93
:101E1000998AAA8ABB8A81E072C0A3FF58C0088D44
:101E2000198D2A8D3B8D081519052A053B0508F4E7
:101E300061C0EE81FF81848190E009968A019B0157
:101E40000150110921093109082E04C03695279542
:101E5000179507950A94D2F775016401B1E0CB1A82
:101E6000D108E108F10804C0F694E794D794C79428
:101E70008A95D2F7C016D106E206F30628F0452B64
:101E8000462B472B09F051C0A6FF4AC0858D968D81
:101E9000A78DB0A18C879D87AE87BF878E01045F19
:101EA0001F4FC114D104E104F10409F4B0CF4C85F3
:101EB0005D856E857F8598018E819F8130DE91E002
:101EC000C91AD108E108F10818165CF313C0A5FF80
:101ED000B0CFEE81FF818781908525E0880F991F23
:101EE0002A95E1F7B0E0A0E088159905AA05BB05A1
:101EF00008F08DCF4C865D866E867F8680E0DF9110
:101F0000CF911F910F91FF90EF90DF90CF90BF90F6
:101F1000AF909F908F907F906F905F904F900895BB
:101F20008C8D9D8DAE8DBF8DB5CFC01AD10AE20AC2
:101F3000F30AB4CFCF93DF93EC01DDDE1882DF919B
:101F4000CF9108953F924F925F926F927F928F92BE
:101F50009F92AF92BF92CF92DF92EF92FF920F9338
:101F60001F93CF93DF9300D01F92CDB7DEB74C0104
:101F7000FC01828184608283A680B780448455847A
:101F800066847784F501C184D284E384F484C41424
:101F9000D504E604F70410F011E003C073016201F8
:101FA00010E0FFEFCF1ADF0AEF0AFF0AF501818D7B
:101FB000928DA38DB48D8C159D05AE05BF0538F4AB
:101FC00011112AC0C184D284E384F484E5CF4C1477
:101FD0005D046E047F0401F19E012F5F3F4FB70146
:101FE000A601C5019CDD87FD17C08823D1F2898138
:101FF0009A81AB81BC81892B8A2B8B2B91F6112383
:1020000029F0F501C186D286E386F486F2E0CF1688
:10201000D104E104F104C0F4312C832D0F900F9012
:102020000F900F90DF91CF911F910F91FF90EF9044
:10203000DF90CF90BF90AF909F908F907F906F90E8
:102040005F904F903F900895F501818D928DA38D03
:10205000B48D8C159D05AE05BF05F0F20FEF1FEF97
:102060002FEF3FE0B701A601C5016BDC382E8823B6
:1020700099F2411451046104710431F4F401C486ED
:10208000D586E686F786C9CFF2E04F165104610483
:10209000710410F2F501818D928DA38DB48D84159C
:1020A0009505A605B70508F4B7CF97018601B301DA
:1020B000A201C50146DC8111E1CFAECFFC01A5A193
:1020C000B6A18C9192A589238C93A5A1B6A18C91E0
:1020D00091A5892B8C930895DC019396ED91FC9149
:1020E0009497908198968C91892380830895DC0140
:1020F0009396ED91FC919497908197968C91892B72
:1021000080830895DC019196ED91FC9192979081E6
:1021100096968C91892380830895DC019196ED91A8
:10212000FC919297908195968C91892B808308954C
:10213000CF92DF92EF92FF921F93CF93DF93EC0148
:102140006A017B018DA9811123C08F2D9927AA27B0
:10215000BB278EBD0DB407FEFDCFC701AA27BB2745
:102160008EBD0DB407FEFDCFBB27AF2D9E2D8D2D4F
:102170008EBD0DB407FEFDCFCEBC0DB407FEFDCF66
:10218000DF91CF911F91FF90EF90DF90CF90089556
:10219000813091F410E2CE01F7FE0CC0BEDFCE011B
:1021A000A6DFCE0199DFCC0CDD1CEE1CFF1C11500C
:1021B00091F7E6CFA7DFF3CFEF8DF8A18F2D992709
:1021C000AA27BB278083CE0179DFEF8DF8A1C70155
:1021D000AA27BB278083CE0171DFEF8DF8A1BB2733
:1021E000AF2D9E2D8D2D8083CE0168DFEF8DF8A160
:1021F000C082CE01DF91CF911F91FF90EF90DF90D1
:10220000CF905CCFFF920F931F93CF93DF93EC019E
:102210008B018DA981110EC01EBD0DB407FEFDCF2F
:102220000EBD0DB407FEFDCFDF91CF911F910F9131
:10223000FF900895813091F490E1F92ECE0117FFBF
:102240000BC06BDFCE0153DFCE0146DF000F111F45
:10225000FA94F110F3CFE8CF55DFF4CFEF8DF8A16A
:102260001083CE012BDFEF8DF8A10083CE01DF912B
:10227000CF911F910F91FF9021CF0F931F93CF9379
:10228000DF93EC01162F8DA9811109C06EBD0DB42D
:1022900007FEFDCFDF91CF911F910F9108958130FF
:1022A00079F408E0CE0117FF09C037DFCE011FDF48
:1022B000110FCE0111DF0150A9F7ECCF23DFF6CFCC
:1022C000EF8DF8A16083CE01DF91CF911F910F9127
:1022D000F5CECF93DF93EC01ED8DFE8D80819CA92F
:1022E00089238083CE01C9DFED8DFE8D80819BA97E
:1022F000892B8083DF91CF9108958F929F92AF9227
:10230000BF92CF92DF92EF92FF920F931F93CF93E2
:10231000DF93EC0189AD9AAD680F791F8BAD9CAD51
:10232000480F591F21503109260F371F4901B12C81
:10233000A12CCB01B0E0A0E0DC0199278827882AF6
:10234000992AAA2ABB2A680181E0C81AD108C40EBA
:10235000D51EF12CE12C70E060E0BA01552744272E
:10236000C42AD52AE62AF72A6AE2CE01B2DFB501ED
:10237000A401CE01DDDE6BE2CE01ABDFB701A60129
:10238000CE01D6DE6CE2CE01DF91CF911F910F918D
:10239000FF90EF90DF90CF90BF90AF909F908F9085
:1023A00098CF1F93CF93DF93EC01162FE881F9812B
:1023B0000284F385E02D1995112369F06DADCE01EE
:1023C00088DFE881F9810688F789E02DCE01DF9169
:1023D000CF911F9119946EADF2CFAF92BF92CF9271
:1023E000DF92EF92FF920F931F93CF93DF93EC0155
:1023F00077FD37C0888599856817790794F557FD6B
:1024000030C08A859B85481759075CF569017A01B8
:102410005B01E881F9810284F385E02DCE011995F5
:10242000E881F98102A4F3A5E02D01E010E021E0AC
:1024300030E0A701B501CE011995B601CE01E2DE6B
:10244000E881F9810688F789E02DCE01DF91CF91EF
:102450001F910F91FF90EF90DF90CF90BF90AF90C2
:102460001994DF91CF911F910F91FF90EF90DF9022
:10247000CF90BF90AF9008958F929F92AF92BF92EE
:10248000CF92DF92EF92FF920F931F93CF93DF9340
:10249000EC0149015701E881F98102A4F3A5E02D7F
:1024A00019959401D8010E947F416B017C01C114F0
:1024B000D104E104F10409F472C08DA9811115C0A1
:1024C00081E0C81AD108E108F1088FEFC816D806D4
:1024D000E806F80609F463C0BEBC0DB407FEFDCFE4
:1024E000AEBC0DB407FEFDCFEBCF813059F581E0D6
:1024F000C81AD108E108F1088FEFC816D806E80617
:10250000F80609F44CC00B2D18E0CE0107FF16C0E9
:1025100004DECE01ECDDCE01DFDD000F1150A9F7A6
:102520000A2D18E0CE0107FF0BC0F7DDCE01DFDD7D
:10253000CE01D2DD000F1150A9F7D9CFE3DDE9CFED
:10254000E1DDF4CFBA1015C0CC0CDD1CEE1CFF1C75
:10255000EF8DF8A1B08281E0C81AD108E108F10836
:102560008FEFC816D806E806F806C9F0CE01A6DD3A
:10257000F2CF81E0C81AD108E108F1088FEFC81640
:10258000D806E806F80659F0EF8DF8A1B082CE0122
:1025900095DDEF8DF8A1A082CE0190DDEACFDF912D
:1025A000CF911F910F91FF90EF90DF90CF90BF9050
:1025B000AF909F908F9008958F929F92AF92BF920D
:1025C000CF92DF92EF92FF920F931F93CF93DF93FF
:1025D0005C014B016A01E90177FD51C0DC011896ED
:1025E0008D919C91681779070CF049C0209709F4E8
:1025F00046C037FF07C0C9010196C80ED91ED19544
:10260000C195D109F50182859385C816D906BCF517
:10261000A6014C0F5D1F9A012150310937FD2FC0D3
:10262000D7FE03C0EA01D12CC12C281739071CF0B2
:10263000EC01CC19DD09D501ED91FC910284F38503
:10264000E02DC501199578018E0121E030E0A60149
:10265000B401C50111DFD501ED91FC910688F78920
:10266000E02DC501DF91CF911F910F91FF90EF9069
:10267000DF90CF90BF90AF909F908F901994DF9193
:10268000CF911F910F91FF90EF90DF90CF90BF906F
:10269000AF909F908F9008958F929F92AF92BF922C
:1026A000CF92DF92EF92FF920F931F93CF93DF931E
:1026B0005C016B014A01E90157FD51C0DC011A962A
:1026C0008D919C91481759070CF049C0209709F447
:1026D00046C037FF07C0C9010196C80ED91ED19563
:1026E000C195D109F50180859185C816D906BCF53B
:1026F000A6014C0F5D1F9A012150310937FD2FC0F3
:10270000D7FE03C0EA01D12CC12C281739071CF0D1
:10271000EC01CC19DD09D501ED91FC910284F38522
:10272000E02DC5011995780101E010E09E01A4019A
:10273000B601C501A1DED501ED91FC910688F789AE
:10274000E02DC501DF91CF911F910F91FF90EF9088
:10275000DF90CF90BF90AF909F908F901994DF91B2
:10276000CF911F910F91FF90EF90DF90CF90BF908E
:10277000AF909F908F9008958F929F92AF92BF924B
:10278000CF92DF92EF92FF920F931F93CF93DF933D
:102790004C016B015A01E901209709F46BC0011546
:1027A000110509F467C037FF07C0C9010196C80EBB
:1027B000D91ED195C195D109F401A085B185CA165C
:1027C000DB060CF057C017FF07C0C8010196A80E22
:1027D000B91E119501951109F40182859385A816FA
:1027E000B9060CF047C0F601EC0FFD1FAF014150D8
:1027F000510957FD3FC0B501600F711F9B0121506A
:10280000310937FD37C0D7FE03C0EF01D12CC12CF1
:10281000B7FE03C08B01B12CA12C4A175B071CF03B
:10282000ED01CC19DD09281739071CF08C010A19B4
:102830001B09D401ED91FC910284F385E02DC401C4
:1028400019959E01A501B601C40116DED401ED91D2
:10285000FC910688F789E02DC401DF91CF911F918B
:102860000F91FF90EF90DF90CF90BF90AF909F902F
:102870008F901994DF91CF911F910F91FF90EF905E
:10288000DF90CF90BF90AF909F908F900895EF9280
:10289000FF920F931F93CF93DF9377FD31C0DC013D
:1028A0001896ED91FC916E177F0754F521153105AF
:1028B00039F137FF07C0F90131964E0F5F1F31958F
:1028C00021953109DC011A96ED91FC914E175F07B5
:1028D000BCF4EA01C20FD31FDE011197B7FD10C08F
:1028E00057FF03C09E0150E040E0AE17BF071CF049
:1028F0009F01241B350B7801890121E030E0BCDD0C
:10290000DF91CF911F910F91FF90EF900895EF927B
:10291000FF920F931F93CF93DF9357FD30C0DC01DD
:102920001A96ED91FC914E175F074CF52115310574
:1029300031F137FF07C0F90131966E0F7F1F3195D6
:1029400021953109DC011896ED91FC916E177F07F6
:10295000B4F4EB01C20FD31FDE011197B7FD0FC016
:1029600077FF03C09E0170E060E0AE17BF071CF068
:102970009F01261B370B780101E010E07DDDDF9120
:10298000CF911F910F91FF90EF9008958F929F929A
:10299000AF92BF92CF92DF92EF92FF920F931F936D
:1029A000CF93DF9347012115310509F44AC0011582
:1029B000110509F446C037FF07C0F90131966E0FC3
:1029C0007F1F319521953109DC011896AD90BC909F
:1029D0006A157B05B4F517FF07C0F80131964E0F55
:1029E0005F1F119501951109DC011A96ED91FC917B
:1029F0004E175F0734F56B01C20ED31EE601219717
:102A0000D7FD1FC07A01E00EF11ED7011197B7FD67
:102A100018C077FF03C0960170E060E057FF03C065
:102A2000870150E040E0CA15DB051CF09501261B2C
:102A3000370BAE17BF071CF08F01041B150B740179
:102A40001BDDDF91CF911F910F91FF90EF90DF90F1
:102A5000CF90BF90AF909F908F900895EF92FF928C
:102A60000F931F93CF93DF93EC0177FD21C08885EF
:102A7000998568177907E4F457FD1AC08A859B8504
:102A800048175907ACF47901E881F98102A4F3A54C
:102A9000E02D01E010E021E030E0CE011995B70112
:102AA000CE01DF91CF911F910F91FF90EF90AACBB4
:102AB000DF91CF911F910F91FF90EF9008950895AE
:102AC000CF93DF93FC012581222361F0EC01038089
:102AD000F481E02D61E082810E948C078FEF0E94DB
:102AE000CF0A1D82DF91CF910895EF92FF920F934D
:102AF0001F93CF93DF93EC017B010E94AA088B0107
:102B00000E94D40A8E838F3F99F40E94AA08601B0A
:102B1000710B693E7340A0F385E58A83CE01D0DF57
:102B200080E0DF91CF911F910F91FF90EF9008957A
:102B30008E3F11F080E5F1CF8FEF8EBDF701D70109
:102B4000A150BE4F9FEF0DB407FEFDCF8EB59EBDC9
:102B50008193AE17BF07B9F70DB407FEFDCF8EB551
:102B60008C931E820E94D40A0E94D40A81E0D9CF9D
:102B70000F931F93CF93DF938C01862FEA010E945E
:102B8000CF0A88818EBD8981FE013296DE5F0DB449
:102B900007FEFDCF8EBDEC17FD0711F08191F7CF39
:102BA0000DB407FEFDCF8FEF0E94CF0A8FEF0E947A
:102BB000CF0A0E94D40AF80186838F71853051F0C4
:102BC00087E58283C8017CDF80E0DF91CF911F9190
:102BD0000F91089581E0F9CFFC0187A987FD06C018
:102BE000A38DB48D9C9181A9892B8C9308958CBD64
:102BF0009DBD0895CF93DF93FC01258121110FC066
:102C0000EC010380F481E02D80819181F0DFEB8184
:102C1000FC8160E082810E948C0781E08D83DF91DE
:102C2000CF910895DF92EF92FF920F931F93CF936E
:102C3000DF938C01C62FD22FF32EE42ED52EFC016C
:102C40008581811102C0C801D5DFCC2321F08CE23F
:102C500091E00E94DB0A8C2F80640E94CF0A8D2DA8
:102C60000E94CF0A8E2D0E94CF0A8F2D0E94CF0A7C
:102C70008D2F0E94CF0A87E8C11101C085E90E940B
:102C8000CF0A0E94D40ACBE00E94D40AF8018683BE
:102C900087FF02C0C150C1F7DF91CF911F910F9103
:102CA000FF90EF90DF900895CF92DF92EF92FF9226
:102CB0000F931F93CF93DF93EC0179018F818330C2
:102CC00039F089E0440F551F661F771F8A95D1F7A9
:102CD0009A01AB0169E1CE01A5DFD12CC12C88237B
:102CE000E1F083E38A83CE01EBDECE01E9DE10E082
:102CF000812FDF91CF911F910F91FF90EF90DF9087
:102D0000CF900895A7016CEFCE0132DF882359F3ED
:102D10008FEFC81AD80A8EEFF81A80ED97E0C01628
:102D2000D10631F00E94DB0A8111ECCF8BE5DACFBE
:102D30000E94DB0A182F882331F08DEF0E94CF0A02
:102D4000CE01BEDED5CF86E58A83FACF0F931F93DF
:102D5000CF93DF93EC0189018F81833039F089E0D3
:102D6000440F551F661F771F8A95D1F79A01AB0153
:102D700068E1CE0157DF882331F082E38A83CE01F8
:102D80009FDE10E01EC0A8016EEFCE01F1DE8823A9
:102D9000B1F380ED97E00E94DB0A182F8AE511233A
:102DA00069F320E030E0A9016DE0CE013BDF88232C
:102DB00011F089E2E3CF0E94D40A8111FACFCE014B
:102DC0007FDE812FDF91CF911F910F910895CF92D8
:102DD000DF92EF92FF920F931F93CF93DF93EC015B
:102DE00079018F81833039F089E0440F551F661FC8
:102DF000771F8A95D1F79A01AB0162E1CE0112DF0C
:102E0000D12CC12C882371F081E38A83CE0158DE56
:102E100080E0DF91CF911F910F91FF90EF90DF90B5
:102E2000CF9008950C151D0559F0B701CE015DDE58
:102E3000882379F38FEFC81AD80A8EEFF81AF2CFE9
:102E400020E030E0A9016CE0CE01ECDE882311F037
:102E500088E2DBCFCE0134DE81E0DBCF0F931F931E
:102E6000CF93DF93EC0189018F81833039F089E0C2
:102E7000440F551F661F771F8A95D1F79A01AB0142
:102E800061E1CE01CFDE882331F080E38A83CE0179
:102E900017DE10E008C0B801CE0127DE182F882306
:102EA000B1F3CE010DDE812FDF91CF911F910F91F4
:102EB0000895FC0125A9211103C081A192A197CEFB
:102EC00008950F931F93CF93DF93EC018B01F1DFF4
:102ED0008FA987FD06C0EB8DFC8D80819AA989237F
:102EE0008083ED8DFE8D80819CA98923808366E39C
:102EF000CE01C3D9ED8DFE8D80819BA9892B808366
:102F00008DA9F801823089F06081CE01B6D98FA9F0
:102F100087FD06C0EB8DFC8D808199A9892B80836C
:102F2000DF91CF911F910F91089588A9882361F3B4
:102F300060817181CE0166D9EACFCF93DF931F9272
:102F4000CDB7DEB7FC0119826370668BDC01AD5B27
:102F5000BF4F2C9130E011968C9190E0623031F0AF
:102F60006330C1F0613079F040EC498332AF21AF7A
:102F700094AF83AFBE016F5F7F4FCF01A2DF0F9091
:102F8000DF91CF91089540EA498334AF23AF92AFE8
:102F900081AFF0CF40E6F8CFCF93DF931F92CDB74C
:102FA000DEB7FC0119826370668BDC01AA5BBF4F40
:102FB0008C91982F9B7FAF014C5B5F4F913031F428
:102FC00093E0623008F091E0DA019C939F012D5B61
:102FD0003F4F623009F44BC0633009F458C0613090
:102FE00061F1823021F098EC843009F045C090EC1A
:102FF00099838130C9F480E890E093878287918734
:103000008087D9018C9190E092AF81AFDA018C91E9
:1030100090E094AF83AFBE016F5F7F4FCF0151DF70
:103020000F90DF91CF910895843051F580EA90E0C0
:103030009387828780E590E0E2CF823019F098EAAA
:10304000843061F590EA9983813091F580E890E0D1
:103050009187808793878287D9018C9190E094AF84
:1030600083AFDA018C9190E092AF81AFD4CF823000
:1030700039F08430D9F298E09983813009F4BBCFDC
:1030800080EA90E09387828780E890E0B8CF823032
:1030900019F098E6843011F490E6D5CF9983813009
:1030A000A9F280EA90E09187808780E890E0D2CF13
:1030B0008430B9F780EA90E09187808780E590E0DE
:1030C000C9CFAF92BF92CF92DF92EF92FF920F9350
:1030D0001F93CF93DF93BC016F5F7F4FFC0114916F
:1030E000115008F476C0FB01D4917B01F2E0EF0EA1
:1030F000F11CFB0131960491C02FCF7786E795E054
:10310000D8DE8091AD0587FD09C0E0919105F09171
:10311000920580819091A80589238083E091930591
:10312000F091940580819091AA05892380836D2F69
:1031300086E795E0A2D8E0919305F091940580810F
:103140009091A905892B8083F701B12CA12CD0E0A7
:10315000AC16BD06E4F48091AB056F01823079F4C2
:103160008091A605882359F0619171916F0186E7DE
:1031700095E048D8EFEFAE1ABE0AF601E9CF8FEF1F
:10318000C81AD80A649186E795E077D8F3CF809182
:10319000AD0587FD09C0E0919105F0919205808110
:1031A0009091A705892B8083B7016C0F7D1F07FFC6
:1031B00097CFEB012196FB01649170E06F3F7105A1
:1031C00011F464EF71E090E080E00E947908BE01A4
:1031D00087CFDF91CF911F910F91FF90EF90DF90FC
:1031E000CF90BF90AF900895CF93DF93EC0161DE55
:1031F0008FA987FD06C0EB8DFC8D80819AA989235C
:103200008083DF91CF910895CF92DF92EF92FF926A
:103210000F931F93CF93DF93DA01EC01EC81FD81D3
:10322000AE9FA001AF9F500DBE9F500D1124460FC1
:10323000571F052E000C660B770B6901330FEE0844
:10324000FF08C40ED51EE61EF71E4C155D056E0563
:103250007F0580F49A01220F331FDC015B96ED910C
:10326000FC91E20FF31F118300834F5F5F4F6F4F9D
:103270007F4FEBCFDF91CF911F910F91FF90EF9098
:10328000DF90CF9008950F931F93DC0114968D91DA
:103290009C911597489FF001499FF00D589FF00DA4
:1032A00011246E0F7F1F660F771F5B96ED91FC91C7
:1032B0005C97E60FF71F50E040E0421753076CF4AD
:1032C0001183008314968D919C911597880F991FF7
:1032D000E80FF91F4F5F5F4FF0CF1F910F910895D7
:1032E0000F931F93CF93DF93FB01BA0137FF0AC0FF
:1032F000A90140955095E41BF50BF7FD33C03195BE
:103300002195310977FD29C0DC011A964D915C9118
:103310001B97641775070CF518964D915C91E4178F
:10332000F507DCF4DF01A20FB31F1A161B06ACF47D
:10333000F7FF03C09D01F0E0E0E0DF01A20FB31F43
:10334000A417B5071CF09A012E1B3F0BEC014E8908
:1033500041110FC0AB01BF0157DFDF91CF911F912A
:103360000F910895AF01421B530B9A01F0E0E0E08A
:10337000C9CF413059F44C815D8141505109EA0176
:10338000C61BD70BBE01AF017EDFE7CF423071F421
:10339000AC81BD814E815F8141505109461B570B65
:1033A000BD01621B730B6E1B7F0BD6CF4330A9F69A
:1033B0004E815F81421B530B4E1B5F0BE5CF0F937A
:1033C0001F93FA0137FF0AC0A90140955095E41BED
:1033D000F50BF7FD32C031952195310977FD2AC0F3
:1033E000DC0118964D915C9119976417750714F5D7
:1033F0001A964D915C91E417F507E4F4DF01A20FF2
:10340000B31F1A161B06B4F4F7FF03C09D01F0E0CA
:10341000E0E0DF01A20FB31F4A175B071CF49A011B
:103420002E1B3F0BDC0156964C91569741110CC058
:10343000AF0129DF1F910F910895AF01421B530B7C
:103440009A01F0E0E0E0CACF413069F414964D9162
:103450005C91421B530BDA01AE1BBF0BFD01AB01AC
:10346000BF01D2DEE7CF423089F416964D915C91D0
:103470001797421B530B4E1B5F0B1496ED91FC915B
:103480003197DF01A61BB70BBD01D3CF433091F6B7
:1034900016964D915C9141505109461B570BE0CF58
:1034A0000F931F93CF93DF93FC01A38DB48D1097DF
:1034B00061F177FD2AC057FD28C080859185681786
:1034C00079071CF58285938548175907F4F4C48160
:1034D000D58186898230F1F0833051F1813031F429
:1034E000CE010197841B950BAB01BC014C9FC00121
:1034F0004D9F900D5C9F900D1124680F791F660FF2
:10350000771FA60FB71F2D933C93DF91CF911F918B
:103510000F910895CE0101978C01061B170BB8017E
:10352000868197810197FC01E41BF50BAF01DECF8B
:10353000868197810197861B970BBA01AC01D6CF84
:103540000F93DC0114968D919C911597489FF00183
:10355000499FF00D589FF00D11246E0F7F1F5B9651
:10356000ED91FC915C97E60FF71F50E040E04217A9
:10357000530754F4008314968D919C911597E80F8E
:10358000F91F4F5F5F4FF3CF0F9108950F931F9374
:10359000CF93DF93FC01838D948D009749F177FDE4
:1035A00027C057FD25C0A085B1856A177B0704F5A4
:1035B000A285B3854A175B07DCF4A481B5813689FF
:1035C0003230D9F0333041F1313031F4FD013197EF
:1035D000E41BF50BAB01BF014A9FF0014B9FF00DBF
:1035E0005A9FF00D1124680F791FE60FF71F2083F3
:1035F000DF91CF911F910F910895ED0121978E01D9
:10360000061B170BB8010680F781E02D3197EF01FB
:10361000C41BD50BAE01E0CF0680F781E02D3197BA
:10362000E61BF70BBA01AF01D7CF0F931F93CF93D0
:10363000DF93DC011496ED91FC91EF012796D7FD05
:103640002796F3E0D595C795FA95E1F7DB0177FD6D
:103650001796E3E0B595A795EA95E1F7C49FF001C9
:10366000C59FF00DD49FF00D1124AE0FBF1FFC01BC
:10367000838D948DA80FB91F67707727012B81F078
:1036800064517A4FFB01649190E080E082179307C8
:10369000BCF44C91462B4C93AC0FBD1F0196F6CF5A
:1036A0006C517A4FFB01649190E080E082179307A0
:1036B0003CF44C9146234C93AC0FBD1F0196F6CFC2
:1036C000DF91CF911F910F9108950F931F93CF9387
:1036D000DF93FC01A38DB48D109709F446C077FDEC
:1036E00044C057FD42C080859185681779070CF06A
:1036F0003CC08285938548175907BCF5C481D581A4
:1037000086898230B9F1833009F442C0813031F4C6
:10371000CE010197841B950BAB01BC01CE0107962E
:1037200097FD0796E3E095958795EA95E1F7849FE5
:10373000F001859FF00D949FF00D1124CB0177FDD2
:10374000079643E0959587954A95E1F78E0F9F1F61
:10375000A80FB91F8C9167707727232B09F164514B
:103760007A4FFB016491682B6C93DF91CF911F918D
:103770000F910895CE0101978C01061B170BB8011C
:10378000868197810197FC01E41BF50BAF01C6CF41
:10379000868197810197861B970BBA01AC01BECF3A
:1037A0006C517A4FFB0164916823DECF0895FC01D0
:1037B0006370668B8481958126813781613039F011
:1037C000633029F091878087338722870895318776
:1037D00020879387828708952F923F924F925F921E
:1037E0006F927F928F929F92AF92BF92CF92DF9211
:1037F000EF92FF920F931F93CF93DF93CDB7DEB776
:103800006A970FB6F894DEBF0FBECDBF9A8F898F2F
:103810007A8369834A01D22E18870F833701BC2C23
:10382000DC0159962D913C915A972115310509F0EB
:1038300015C118968D919C911997681779070CF00E
:10384000D7C11A968D919C91481759070CF0D0C199
:103850004C2C512CB6E0CB9E600D711D11247C8741
:103860006B87161617060CF0C3C1EA2DF0E0FA8735
:10387000E98793E0EE0FFF1F9A95E1F7F88BEF874A
:10388000CF01840F951F181619060CF0B1C1A98D30
:10389000BA8D58968C91811104C0BFEABD1508F409
:1038A000D394A98DBA8DED91FC9111970284F38583
:1038B000E02DCD011995B5E0DB9EC0011124E98111
:1038C000FA81FC83EB83312C212C9C012C513F4F3E
:1038D000388F2F8B4A2D50E05E8B4D8BEF89F88D02
:1038E000E20DF31D44919E828D82D12CC12C698101
:1038F0007A81620D731D7A8B698B842F90E09C8B8B
:103900008B8BE98DFA8DA081B18140FF82C0F1E0FF
:10391000BF126FC0AF126DC01C96ED91FC912F814C
:103920003885A4014C0D5D1D69897A89898D9A8D30
:103930001995EB89FC89F595E7954E2F5FEFC51A30
:10394000D50A6D817E818D899E89680F791F7E835E
:103950006D8398E0C916D10481F6AFEF2A1A3A0AAE
:10396000EB81FC81E40DF51DFC83EB83F5E02F1664
:10397000310409F0B3CF2F81388526153705B9F00A
:10398000A98DBA8DED91FC91B1E0BB1257C0AB127D
:1039900055C069817A816B5F7F4F0088F189E02D86
:1039A000830128E030E0A401898D9A8D1995A98DB5
:1039B000BA8DED91FC9111970688F789E02DCD0124
:1039C0006A960FB6F894DEBF0FBECDBFDF91CF91E0
:1039D0001F910F91FF90EF90DF90CF90BF90AF902D
:1039E0009F908F907F906F905F904F903F902F901F
:1039F00019941E96ED91FC91EF80F88409851A8543
:103A000092014D815E816B817C81898D9A8D1995A2
:103A100090CF2F8138852615370509F48ACF31E0FC
:103A2000B31207C0A31205C01C96ED91FC9193013F
:103A300078CF1E96ED91FC917301E0CF6B857C856C
:103A4000641975090684F785E02D73010F851889BF
:103A50009201A401898D9A8D1995A9CFF901349607
:103A60009491329745915491D91AB7E0DB9E400D5D
:103A7000511D1124F901259134913C8B2B8BFA01B6
:103A800025903490FA013296749031963491398BA6
:103A9000329664903196449041E04C1518F04A15E6
:103AA00008F07FC0662D062C000C770B7C836B839F
:103AB000842D042C000C990B9E838D83A98DBA8DC7
:103AC000ED91FC9111970284F385E02DCD011995BC
:103AD000512CD12CC12CEA2DF0E0FA87E9872B2D4F
:103AE00030E03C872B87A401440D511D47FC5A95BB
:103AF000588F4F8B69817A81660D711D67FC7A95AD
:103B00007E876D877989C71608F051CF2C2D30E05C
:103B10004D815E81420F531FA985BA854A9FC0011E
:103B20004B9F900D5A9F900D1124FC01E80DF91D3B
:103B3000F88BEF87852D612C4F89588D420F531FCD
:103B40005E8B4D8B671408F050C044244394480E9C
:103B5000877041F4C1010196EB89FC89E20DF31DE8
:103B6000D4901C01D7FE19C0A98DBA8DED91FC919E
:103B7000662D70E0B1E0BB1219C0AB1217C02D85E5
:103B80003E85620F731F0484F585E02D2F813885F3
:103B90004D895E89898D9A8D1995DD0C6394842DEC
:103BA000D1CF1E821D821C821B8288CF4B815C81FB
:103BB000640F751FAB85BC856A9FC0016B9F900D1C
:103BC0007A9F900D112469817A81680F791F06848C
:103BD000F785E02DEF80F88409851A859D014F85D2
:103BE0005889898D9A8D1995D8CF570CC3948ACF4F
:103BF0006A960FB6F894DEBF0FBECDBFDF91CF91AE
:103C00001F910F91FF90EF90DF90CF90BF90AF90FA
:103C10009F908F907F906F905F904F903F902F90EC
:103C200008958F929F92AF92CF92EF92FF920F934F
:103C30001F93CF93DF93EC01262F898D9A8D0097E8
:103C400009F050C06A30D1F41D861C868D8948E089
:103C5000849F900111248E859F85820F931F9F87DB
:103C60008E8781E090E0DF91CF911F910F91FF90BF
:103C7000EF90CF90AF909F908F9008956D3089F323
:103C8000CC88AD888F898823C1F08C859D8536E0EE
:103C9000C39E800D911D11244885598548175907E9
:103CA00064F44E855F851D861C8638E0A39EC001A6
:103CB0001124840F951F9F878E87EA88FB880889C7
:103CC00019894E855F856C857D85CE0185DD2C89C2
:103CD0008C859D8546E0249F800D911D11249D8734
:103CE0008C87BFCF6A3069F41D861C86FC0138962C
:103CF000E4912D898E859F85E29F800D911D112471
:103D0000AECF6D3009F4ADCFFC013496349163171A
:103D100008F4A7CF3296E491E61708F4A2CFFC018D
:103D2000329685909490462F431B342F47E0349F62
:103D3000800C911C1124F401329634913196E49157
:103D40003323A1F1EE2391F1CC88F4013596E4916F
:103D5000AD884F89442301F10E2E000CFF0BE30FB9
:103D6000F11DCE9EA001CF9E500D11246C857D8546
:103D7000460F571F68857985641775076CF44E8563
:103D80005F851D861C86FC013896E491AE9E400D31
:103D9000511D11245F874E87EA88FB88088919899D
:103DA0004E855F856C857D85CE0116DDF4013496E8
:103DB000E4912C898C859D85E29F800D911D1124B5
:103DC0008ECF6F927F928F929F92AF92BF92CF923F
:103DD000DF92EF92FF920F931F93CF93DF93EC014B
:103DE0006B015A0139014801E881F9810284F385A8
:103DF000E02D1995E881F9810288F389E02D87018A
:103E00009301A501B601CE011995A501480D591DD3
:103E100041505109E881F9810288F389E02D93012D
:103E2000B601CE011995E881F9810088F189E02D6C
:103E30009401A501B601CE011995C60CD71CB60197
:103E400061507109E881F9810088F189E02D9401C0
:103E5000A501CE011995E881F9810688F789E02D41
:103E6000CE01DF91CF911F910F91FF90EF90DF90E6
:103E7000CF90BF90AF909F908F907F906F9019944C
:103E80006F927F928F929F92AF92BF92CF92DF926A
:103E9000EF92FF920F931F93CF93DF935C01EB019F
:103EA0006A01490138018701DC01ED91FC9162173B
:103EB000730719F5641675062CF0962D872D3A01B7
:103EC000C92ED82E9601261937092F5F3F4F048C33
:103ED000F58DE02DA301BE01C5011995DF91CF91AC
:103EE0001F910F91FF90EF90DF90CF90BF90AF9018
:103EF0009F908F907F906F9008954615570591F48D
:103F00002617370724F0892D4B01C22FD82F9E0189
:103F1000281939092F5F3F4F068CF78DE02DA60138
:103F2000B401DACF0284F385E02D1995D501ED9126
:103F3000FC910488F589E02D83019401A601BE015E
:103F4000C5011995D501ED91FC910688F789E02D01
:103F5000C501DF91CF911F910F91FF90EF90DF90FE
:103F6000CF90BF90AF909F908F907F906F9019945B
:103F7000EF92FF920F931F93DC011A960D911C9103
:103F80001B9718962D913C911997ED91FC9100A0EB
:103F9000F1A1E02D7B0150E040E070E060E0199578
:103FA0001F910F91FF90EF9008954F925F926F9243
:103FB0007F928F929F92AF92BF92CF92DF92EF92B9
:103FC000FF920F931F93CF93DF936C012B015A0144
:103FD00039014801DC01ED91FC910284F385E02D6B
:103FE0001995E201640C751CD601ED91FC91C61582
:103FF000D7055CF40088F189E02D87019401A501C3
:10400000BE01C60119952196EFCF0688F789E02DEC
:10401000C601DF91CF911F910F91FF90EF90DF903C
:10402000CF90BF90AF909F908F907F906F905F9058
:104030004F9019948F929F92AF92BF92CF92DF923E
:10404000EF92FF920F931F93CF93DF93EC015B01ED
:104050004A016901E881F9810284F385E02D19950F
:1040600095012C0D3D1D21503109E881F98104880D
:10407000F589E02D78018401A401B501CE011995DF
:10408000E881F9810688F789E02DCE01DF91CF9193
:104090001F910F91FF90EF90DF90CF90BF90AF9066
:1040A0009F908F9019948F929F92AF92BF92CF92D0
:1040B000DF92EF92FF920F931F93CF93DF93EC0168
:1040C0005B014A0169017801E881F9810284F38585
:1040D000E02D1995C80CD91C860101501109E88101
:1040E000F9810488F589E02D9501A401B501CE017F
:1040F0001995E881F9810688F789E02DCE01DF91D5
:10410000CF911F910F91FF90EF90DF90CF90BF90D4
:10411000AF909F908F901994EF92FF920F931F93FF
:10412000DC01ED91FC9100A0F1A1E02D19951F910A
:104130000F91FF90EF9008950F931F93DC01ED9185
:10414000FC91068CF78DE02D19951F910F91089524
:104150000F931F93DC01ED91FC91048CF58DE02D04
:1041600019951F910F910895DC01ED91FC91008448
:10417000F185E02D19942F923F924F925F926F92AA
:104180007F928F929F92AF92BF92CF92DF92EF92E7
:10419000FF920F931F93CF93DF9300D000D0CDB742
:1041A000DEB73C016A013E832D83FC82EB8258011D
:1041B000A41AB50AB7FE03C0B194A194B1088D80CA
:1041C0009E80861A970A97FE03C091948194910865
:1041D0008A149B045CF0902F812F0D811E819D839A
:1041E0008E839C2D8D2D6B01692F782F0C151D054D
:1041F0005CF09D818E817E836D83692F782F902F57
:10420000812F8601C92ED82E1601201A310A2B01C2
:104210002D813E81421A530A57FE03C051944194A6
:104220005108710137FE03C03FEFE31AF30AF5941A
:10423000E7948D819E81861797075CF5A1E0B0E039
:10424000BA83A983C016D1064CF1D301ED91FC913C
:104250000484F585E02D2B813C81A8016D817E8150
:104260008A149B041CF04D815E81B801C30119952D
:10427000E418F508F7FE0AC02D813E8189819A81F4
:10428000280F391F3E832D83E20CF31C0F5F1F4F55
:10429000D9CF2FEF3FEF3A832983D4CF26960FB69D
:1042A000F894DEBF0FBECDBFDF91CF911F910F916C
:1042B000FF90EF90DF90CF90BF90AF909F908F9046
:1042C0007F906F905F904F903F902F900895CF9385
:1042D000CFB7F8948091FA03811127C0EEE0F8E09F
:1042E0008491E4E5F8E09491E82FF0E0EE0FFF1FF1
:1042F000EC50FA4FA591B491EC91E92321F461E0DF
:1043000085E30E948C0761E085E30E9418088CB564
:1043100080618CBD8CB580648CBD61E084E30E94BB
:10432000180861E083E30E9418088091FA038F5F08
:104330008093FA03CFBFCF91089570E060E086E7E5
:1043400095E016DE10928D0561E086E795E00C940D
:10435000CC176F927F928F929F92AF92BF92CF9223
:10436000DF92EF92FF920F931F93CF93DF9300D0D2
:1043700000D01F921F92CDB7DEB74C015B013A010E
:10438000FC0184819581892B89F0CE0107966C010F
:10439000FE0135967F018E010D5F1F4F9E012F5F3D
:1043A0003F4FF401808191810E94C7048D819E81DD
:1043B00096958795A81AB90AB0928305A0928205AE
:1043C0007092850560928405C4010E946206289659
:1043D0000FB6F894DEBF0FBECDBFDF91CF911F9116
:1043E0000F91FF90EF90DF90CF90BF90AF909F9094
:1043F0008F907F906F9008950C960C947B0EFC012B
:10440000848583FF17C084A195A1A6A1B7A1448D7F
:10441000558D668D778D841B950BA60BB70B81157B
:1044200020E89207A105B10520F08FEF9FE7A0E0FB
:10443000B0E0089580E090E0DC01F1CF81E00895E4
:10444000089590E080E008954F925F926F927F927E
:104450008F929F92AF92BF92CF92DF92EF92FF9294
:10446000CF93DF9300D000D01F921F92CDB7DEB75D
:104470006B017C0149015A0120E030E048E852E438
:104480000E946E402AE939E949E95FE30E94553FFD
:104490002B013C0120E030E044E752E4C701B601C3
:1044A0000E946F409B01AC01C301B2010E946F40AA
:1044B0002B013C0122E133E840EC5DE3C501B4018E
:1044C0000E94553F9B01AC01C301B2010E946F40A5
:1044D00020E030E040E05FE30E94553F2B013C01CB
:1044E00020E030E04EE952E40E94044118160CF03E
:1044F00022C1A7019601C701B6010E94553F2B01B9
:104500003C01A5019401C501B4010E94553F6D8392
:104510007E838F83988721E133E243E050E4C70133
:10452000B6010E94553F29E134E849E252E40E9475
:104530006E4069837A838B839C8326E13BE442E26D
:1045400051E4C501B4010E94553F9B01AC01698152
:104550007A818B819C810E946F4069837A838B83EF
:104560009C8328E436E246E65EEBC701B6010E9472
:10457000553FA50194010E94553F9B01AC01698103
:104580007A818B819C810E946F4069837A838B83BF
:104590009C8320EE3FE040EE5BEBC301B2010E9442
:1045A000553F9B01AC0169817A818B819C810E947E
:1045B0006F4069837A838B839C8328EF37E840E6DA
:1045C0005DEB6D817E818F8198850E94553F9B01B7
:1045D000AC0169817A818B819C810E946F406983E3
:1045E0007A838B839C832CEA3DE041EA5AE3C30142
:1045F000B2010E94553FA50194010E94553F9B01C5
:10460000AC0169817A818B819C810E946F406983B2
:104610007A838B839C8328EC3FE84FE55AE3C701FC
:10462000B6010E94553F2D813E814F8158850E94E1
:10463000553F9B01AC0169817A818B819C810E94ED
:104640006F4069837A838B839C8321EF3BE845E04D
:1046500056EBC301B2010E94553F2D813E814F812F
:1046600058850E94553F9B01AC0169817A818B81FD
:104670009C810E946F402B013C0120E030E040E52E
:1046800051E4C501B4010E94F03E87FF74C020E0F0
:1046900030E040EA52E4C701B6010E94044187FDC0
:1046A0006AC020E030E040EE52E4C701B6010E944B
:1046B000F03E18160CF4A9C0A501940160E070E06A
:1046C00080E591E40E946E4020E030E040E85EE347
:1046D0000E94553F4B015C0120E030E04EEB52E47C
:1046E000C701B6010E946E406B017C0120E030E002
:1046F000A9010E9404411816ACF5A701960160E0DB
:1047000070E088E891E40E946E402EE33DEE40E7C1
:104710005DE30E94553F0E940C419B01AC01C50125
:10472000B4010E94553F9B01AC01C301B2010E943C
:104730006E402B013C01C301B20128960FB6F894DC
:10474000DEBF0FBECDBFDF91CF91FF90EF90DF9026
:10475000CF90BF90AF909F908F907F906F905F9021
:104760004F90089520E030E048E851E4C701B601D9
:104770000E946F40CACF20E030E04AEA52E4C5010F
:10478000B4010E9404411816B4F620E030E040EA7B
:1047900052E4C701B6010E94044187FDCCCF20E05E
:1047A00030E04EEA52E4C701B6010E94F03E18160E
:1047B0000CF4C1CF20E030E04AEA52E4C501B40174
:1047C0000E946E402DEC3CEC4CEC5DE30E94553FAA
:1047D0004B015C01A701960160E070E08EEA92E473
:1047E0000E946E402DEC3CEC4CE45EE30E94553F91
:1047F0009B01AC01C501B4010E94553F9B01AC0176
:10480000C301B2010E946F4094CF20E030E04AEA39
:1048100052E4C501B4010E94044118160CF4BFCF44
:104820008ACFCF92DF92EF92FF920F931F93CF9395
:10483000DF93FC0180E2DF011D928A95E9F7EB012D
:10484000AE81BF81B783A68355834483CC8CDD8C36
:10485000EE8CFF8CC086D186E286F3864F7055279A
:10486000ED01A89695E0440F551F9A95E1F7BE011A
:10487000640F751FEB018B8583FD49C0CD01840F4B
:10488000951FEC018BA987718083EB019B85987143
:1048900011F488608083238381E0828394960D9154
:1048A0001D912D913C919797048B158B268B378BFF
:1048B000A40FB51FDC964D915C91DD9770E060E030
:1048C000BA0155274427ED01CE5BDF4F08811981DE
:1048D00030E020E0402B512B622B732B448F558FFF
:1048E000668F778FAC5BBF4F8D919D910D90BC9182
:1048F000A02D808F918FA28FB38F81E0DF91CF9118
:104900001F910F91FF90EF90DF90CF90089510824C
:1049100080E0F4CFFC0180E2DF011D928A95E9F787
:1049200077836683DB0115968C91803121F080328C
:1049300039F08C3039F480E2808381E082830895FD
:1049400080E4FACF80E008950F931F93FC01838DDC
:10495000948D009741F14681578124813581429F92
:104960008001439F100D529F100D1124761308C033
:10497000A801440F551F77271F910F910C94A64350
:10498000012E000C220B330BFC0180E090E0DC01D7
:1049900080179107A207B30730F4619371930196D2
:1049A000A11DB11DF5CF1F910F9108950F931F9376
:1049B000CF93DF93DC01FB01EA0137FF0AC0C90195
:1049C00080959095E81BF90BF7FD49C0319521952D
:1049D0003109D7FD59C01A968D919C911B97C81724
:1049E000D9070CF051C018968D919C911997E81732
:1049F000F9070CF049C0AF01420F531F14161506FA
:104A00000CF042C0F7FF03C09A01F0E0E0E0AF0114
:104A1000420F531F481759071CF09C012E1B3F0BD8
:104A200056968C915697811121C014964D915C91A8
:104A30001597C49FC001C59F900DD49F900D112460
:104A4000E80FF91F5B968D919C91A901B8018E0F1B
:104A50009F1FDF91CF911F910F910C94A643CF011F
:104A6000821B930B9C01F0E0E0E0B3CF813089F42E
:104A700014966D917C911597615071096C1B7D0B9B
:104A8000AF01CD010E94A01ADF91CF911F910F912C
:104A900008958230E9F414964D915C91159716961D
:104AA0006D917C911797615071096C1B7D0B649F10
:104AB000C001659F900D749F900D11244E1B5F0BDC
:104AC000421B530B840F951F5B96ED91FC91BDCF5C
:104AD0008330D1F616964D915C911797421B530B7C
:104AE0004E1B5F0BBE01CDCF0F931F93FC01DB016B
:104AF00037FF0AC0C90180959095481B590B57FD97
:104B000047C0319521953109B7FD5CC080859185FD
:104B1000A817B9070CF056C0828593854817590726
:104B20000CF050C0BA01620F731F161617060CF076
:104B300049C057FF03C09B0150E040E0BA01620F3B
:104B4000731F861797071CF49C01241B350B86895D
:104B5000BD018823A1F1813011F564817581CB01FC
:104B6000841B950B821B930B6A9FA0016B9F500DBA
:104B70007A9F500D1124840F951F038CF48DE02D26
:104B8000A901B8018E0F9F1F1F910F910C94A6438E
:104B9000BA01621B730B9B0150E040E0B5CF82303D
:104BA000A1F486819781821B930BBC01641B750B5A
:104BB000AB01848195810197BC016A1B7B0BCF01FE
:104BC0000E94A01A1F910F9108958330D9F7868112
:104BD00097810197BC016A1B7B0BDB0164817581A6
:104BE000A69FC001A79F900DB69F900D1124C3CF23
:104BF000FC01838D948D009769F0A481B581268195
:104C00003781A29FA001A39F500DB29F500D112488
:104C10000C94A6430895CF92DF92EF92FF920F93E8
:104C20001F93CF93DF93FC01A481B581FD013796DB
:104C3000F7FD3796A3E0F595E795AA95E1F7E49F90
:104C4000E001E59FD00DF49FD00D1124AB0177FF5B
:104C500002C0495F5F4FE3E055954795EA95E1F75C
:104C60004C0F5D1FFC01C38DD48DC40FD51F79017E
:104C70009B0127703327232BD1F0677020E0E114CC
:104C8000F10471F0E62F062E000CFF0BE451FA4FF1
:104C9000E4912E2BF1E0EF1AF1086F5F683079F79D
:104CA000388101151105C9F1232B28832196E114C0
:104CB000F10451F1670183E0D694C7948A95E1F736
:104CC00087E0E822FF2461E00115110509F460E0A6
:104CD000619570E0A601CE010E94A643E114F104A3
:104CE00099F0ECEEF5E0970124513A4F80E0949171
:104CF000892B31962E173F07D1F7CC0DDD1D9881FA
:104D0000012B71F0892B8883DF91CF911F910F9137
:104D1000FF90EF90DF90CF90089520952323C5CF8B
:104D200080958923F0CF0F931F93CF93DF93FB01DF
:104D3000BA0137FF0AC0A90140955095E41BF50B55
:104D4000F7FD33C031952195310977FD29C0DC018C
:104D50001A964D915C911B97641775070CF5189680
:104D60004D915C91E417F507DCF4DF01A20FB31F4E
:104D70001A161B06ACF4F7FF03C09D01F0E0E0E05B
:104D8000DF01A20FB31FA417B5071CF09A012E1B59
:104D90003F0BEC014E8941110FC0AB01BF013BDF5E
:104DA000DF91CF911F910F910895AF01421B530BDB
:104DB0009A01F0E0E0E0C9CF413061F44C815D81BF
:104DC00041505109EA01C61BD70BBE01AF010E9439
:104DD000151BE6CF423071F4AC81BD814E815F81FD
:104DE00041505109461B570BBD01621B730B6E1BD3
:104DF0007F0BD5CF4330A1F64E815F81421B530B11
:104E00004E1B5F0BE4CF0F931F93FA0137FF0AC0CD
:104E1000A90140955095E41BF50BF7FD33C0319582
:104E20002195310977FD2BC0DC0118964D915C91DD
:104E30001997641775071CF51A964D915C91E41744
:104E4000F507ECF4DF01A20FB31F1A161B06BCF422
:104E5000F7FF03C09D01F0E0E0E0DF01A20FB31F08
:104E60004A175B071CF49A012E1B3F0BDC01569678
:104E70004C91569741110DC0AF010E94151B1F9117
:104E80000F910895AF01421B530B9A01F0E0E0E04F
:104E9000C9CF413069F414964D915C91421B530B7C
:104EA000DA01AE1BBF0BFD01AB01BF01B4DEE7CFE2
:104EB000423089F416964D915C911797421B530B23
:104EC0004E1B5F0B1496ED91FC913197DF01A61BF1
:104ED000B70BBD01D2CF433091F616964D915C9140
:104EE00041505109461B570BE0CFFC01838D948D37
:104EF000009709F1448155819A01295F3F4F37FF9F
:104F000002C0295F3F4F43E0359527954A95E1F769
:104F10000680F781E02D2E9FA0012F9F500D3E9F10
:104F2000500D1124672B21F470E060E00C94A6432F
:104F30006FEF70E0FBCF0895CF92DF92EF92FF9278
:104F40000F931F93CF93DF93EC016A017B01C11490
:104F5000D104E104F10439F4C12C28E4D22E28EE66
:104F6000E22EFF24F394FE01FF96C082D182E282FA
:104F7000F38281E28DAF80E28EAF369610818FA9E9
:104F800087FD07C061E00E94180861E08FA90E94B8
:104F90008C0761E088AD0E94180861E088AD0E942E
:104FA0008C078DA9811150C040E052E16AE770E0A2
:104FB000C416D506E606F70640F47695679557952C
:104FC00047958F5F8630A1F787E0212F2C702065F1
:104FD000982F9695922B99A3809581708AA3812F03
:104FE00090E0B0E0A0E08BA39CA3ADA3BEA36FD9DB
:104FF0008EA987FD75C061E00E94180861E08EA946
:105000000E948C0764E670E080E090E00E947908DE
:1050100060E08EA90E948C0764E670E080E090E07A
:105020000E94790861E08EA90E948C0768EC70E00C
:1050300080E090E0DF91CF911F910F91FF90EF9072
:10504000DF90CF900C94790809ED17E0F12C8130B6
:10505000B9F461E08AA50E94180860E08AA50E9460
:105060008C0761E08CA50E94180860E08CA50E9466
:105070008C078BA587FDBCCF60E00E941808B8CFD5
:10508000F8018491E82FF0E0EE0FFF1FE154F84F94
:10509000859194912F8D38A12817390741F461E04B
:1050A0008F2D0E94180860E08F2D0E948C07F394CA
:1050B0000F5F1F4FF6E4FF12E3CF61E08EA50E9461
:1050C000180861E08EA50E948C078FA587FD90CF00
:1050D00061E00E94180861E08FA50E948C0788CFCC
:1050E000DF91CF911F910F91FF90EF90DF90CF90C4
:1050F0000895EF92FF920F931F93CF93DF9300D009
:105100001F92CDB7DEB78BE894E00E947A068BE859
:1051100094E00E947A068E010F5F1F4F78018A3358
:1051200041F0F80181938F018BE894E00E947A06A8
:10513000F6CFC7010E94983E182F8BE894E00E949A
:105140007A068053990B8230910520F4682F812FC5
:105150000E948C078BE894E00E947A068A3011F056
:105160008D30C1F78BE894E00E948E068A3021F4DE
:105170008BE894E00E947A060F900F900F900F90AA
:10518000DF91CF911F910F91FF90EF9008952F9293
:105190003F924F925F926F927F928F929F92AF92C7
:1051A000BF92CF92DF92EF92FF920F931F93CF9314
:1051B000DF93EC015B014A01888183FFC5C08A81CE
:1051C00081FFC2C083FDB7C0A40170E060E08889A0
:1051D0009989AA89BB8980959095A095B0958417E7
:1051E0009507A607B70708F4AFC074011E018CE04D
:1051F000280E311C088919892A893B89E114F10498
:1052000009F418C18E819F81B901A80139E0769512
:105210006795579547953A95D1F7DC011396DC9041
:10522000D4221170D1101BC04C855D856E857F85A1
:105230000115110509F02BC14115510561057105D5
:1052400009F488C091010E948F0D87FD7DC08111F6
:1052500006C0CE010E94A20F882309F475C0EE811A
:10526000FF814C855D856E857F85425051096109BE
:105270007109848104C0440F551F661F771F8A95EA
:10528000D2F781899289A389B489840F951FA61FBB
:10529000B71FAC01BD014D0D511D611D711D0115E3
:1052A000110529F4E114B2E0FB0608F06EC080E0BD
:1052B00092E0801B910B67018E159F0508F46C012D
:1052C0000115110571F4488859886A887B88888D92
:1052D000998DAA8DBB8D25E0481659066A067B0676
:1052E00008F421E0CF0181960E943D0B009761F107
:1052F000A601B501800F911F0E949D430C0D1D1D3D
:105300000115124039F48E819F8181960E94FA0A1C
:105310008823D1F088899989AA89BB898C0D9D1D24
:10532000A11DB11D888B998BAA8BBB8BAC0CBD1CAE
:10533000EC18FD085FCF488D598D6A8D7B8DCE01AD
:105340000E94DA0E811140CF8981816089838FEFBD
:105350009FEF84C08C8D9D8DAE8DBF8D0097A10574
:10536000B10571F4CE010E94A20F882369F38C85E8
:105370009D85AE85BF858C8F9D8FAE8FBF8F6FCF84
:105380008C879D87AE87BF876ACF44A055A066A053
:1053900077A0E11484E0F80690F1C701892F9927DE
:1053A000869502810D1910E08017910708F48C0191
:1053B0006801DC2CCC24DD0C441555056605770509
:1053C00088F0400E511E611C711C44155505660580
:1053D000770540F411A28FEF9FEFDC0184A395A322
:1053E000A6A3B7A3EE81FF8180819181DC01ED91BD
:1053F000FC910084F185E02D9501199589CF441524
:1054000055056605770541F411A28FEF9FEFDC018A
:1054100084A395A3A6A3B7A3EE81FF819501808104
:1054200091810E94F30A882309F48ECFC12C82E077
:10543000D82E70CF888D998DAA8DBB8D801791073E
:10544000A207B30738F48A81088F198F2A8F3B8F00
:1054500084608A838A8187FD14C0C401DF91CF9163
:105460001F910F91FF90EF90DF90CF90BF90AF9082
:105470009F908F907F906F905F904F903F902F9074
:105480000895CE010E947B0E8111E7CF5DCFFC0114
:105490004250510961097109848104C0440F551FAC
:1054A000661F771F8A95D2F781899289A389B4896B
:1054B000480F591F6A1F7B1FFACE0C9668CECF93F8
:1054C000DF931F92CDB7DEB7698341E050E0BE01A4
:1054D0006F5F7F4F0C965BDE0F90DF91CF91089549
:1054E0003F924F925F926F927F928F929F92AF9274
:1054F000BF92CF92DF92EF92FF920F931F93CF93C1
:10550000DF9300D01F92CDB7DEB79C838B834B0116
:105510007A01DC018C91882309F4EFC012969C91EA
:10552000129790FFEAC083FF1AC058968D919D9103
:105530000D90BC91A02DEB81FC814089518962893D
:105540007389841B950BA60BB70BA70170E060E075
:10555000481759076A077B07C8F07C0117C085FF09
:1055600015C0AB81BC811696ED91FC911797878190
:10557000908545E0880F991F4A95E1F750962D9147
:105580003C91821B930B8E159F0538F36701312CDC
:10559000EB81FC813C96FA83E983C114D10409F4C0
:1055A00020C1EB81FC8180899189A289B3898C011A
:1055B00011702081A680B7802C013D0139E07694DE
:1055C0006794579447943A95D1F7F50125FF38C071
:1055D000858D968DA78DB0A1480E591E6A1E7B1E23
:1055E000AB81BC811696ED91FC910115110509F076
:1055F0008FC0C114B2E0DB0608F48AC044A155A1F3
:1056000066A177A1441655066606770609F480C0A0
:10561000C11484E0D80608F0A7C080819181DC0124
:10562000ED91FC910190F081E02D9401B301A20174
:105630001995882309F461C0A12C82E0B82E81C09D
:10564000338034200115110591F4311010C0892BDD
:105650008A2B8B2BD9F526FF32C0858D968DA78D91
:10566000B0A1EB81FC8184879587A687B787AB8142
:10567000BC811696ED91FC9117971C964D905D900C
:105680006D907C901F97B2E04B1A51086108710829
:10569000848104C0440C551C661C771C8A95D2F783
:1056A00081899289A389B489840D951DA61DB71D92
:1056B0002C013D01430C511C611C711C91CFEB81ED
:1056C000FC81848D958DA68DB78DCBCFAB81BC81B0
:1056D0001C964D915D916D917C911F9729813A8126
:1056E000C5010E948F0D87FD08C08111C0CFEB81DD
:1056F000FC818081807709F074C0AB81BC811196F8
:105700008C911197826011968C938FEF9FEF6CC0F4
:1057100080E092E0801B910B56018C159D0508F4EA
:105720005C0120E0B301A201CF0181960E943D0BF4
:10573000009719F3BC01600F711FA501C4010E94FD
:105740009D438A0C9B1CEB81FC8180899189A289F5
:10575000B3898A0D9B1DA11DB11D808B918BA28BDE
:10576000B38BCA18DB0819CF8601012F11270695C4
:10577000AB81BC818C9185FD07C08281831990E04B
:105780008017910708F48C015801BA2CAA24BB0C8D
:105790004416550666067706A0F4AB81BC811696C2
:1057A000ED91FC9180819181DC01ED91FC9106806D
:1057B000F781E02D9401B301A20119958111C1CFA8
:1057C0009CCF400F511F611D711D44165506660682
:1057D000770618F7CF0181960E94FA0A8111DDCF72
:1057E0008CCFC7018C199D090F900F900F900F90CF
:1057F000DF91CF911F910F91FF90EF90DF90CF90AD
:10580000BF90AF909F908F907F906F905F904F90E0
:105810003F900895CF93DF9300D01F92CDB7DEB7AE
:1058200044E050E0BE016F5F7F4F8BEC95E058DEA7
:1058300069817A818B819C810F900F900F900F90DE
:10584000DF91CF910895EF92FF920F931F93CF9323
:10585000DF931F92CDB7DEB77C01962FF701408909
:105860005189628973898A019B0185E03695279564
:10587000179507958A95D1F70F7011F091112AC0ED
:1058800041E050E0BE016F5F7F4FC70129DE8130EC
:1058900051F090E080E00F90DF91CF911F910F9138
:1058A000FF90EF900895F70180899189A289B389CB
:1058B0004F96A11DB11D808B918BA28BB38BF701ED
:1058C000868197818896F0E20F9F90011124820FC4
:1058D000931FE1CF405E5F4F6F4F7F4F408B518BE7
:1058E000628B738BECCF2F923F924F925F926F92AD
:1058F0007F928F929F92AF92BF92CF92DF92EF9260
:10590000FF920F931F93CF93DF9300D0CDB7DEB7F5
:105910007C017B836A83FA01DB018C91807709F437
:10592000E2C0D7018C918111DEC0C180D28080811C
:10593000837088248394882349F0C6010C966DE017
:1059400070E00E94634188248394860E8F0140E0BA
:1059500050E0BA018A819B810E94DA0E1982212CC3
:10596000312C912C5801B6E0AB0EB11CEA81FB81C1
:10597000408851886288738861E0CF0164DF0097B6
:1059800009F4B1C0DC012C91253E09F4A6C0222304
:1059900009F4C0C0381470F12E3251F1FC01338586
:1059A0003F3009F05DC0911027C026FFDFCF2F7177
:1059B000922EF585F983222EE22DE150FF0BAF01E7
:1059C000FDE0F49F9001F59F300D11242C153D054D
:1059D00078F4FC01712C64E06715B0F0818192814C
:1059E000C216D306D1F4892B19F4C0CF253EA1F6F7
:1059F000912CBCCF312CD0CF2A942211F9CF258500
:105A0000B9812B17C9F2F4CF8AE0871518F0848189
:105A10009581E6CF86819781E3CF8F3F910509F08D
:105A200038F74FEB480F4A3108F4805EB9016F5FD9
:105A30007F4FD80113964D915C91240F351FD901EA
:105A40009C912FEB290F2A3108F4905E9813D0CF48
:105A500073943296BDE07B1609F488CF9B01BBCFCF
:105A600033FDC6CF992061F1E1E02E123CC00E94C7
:105A70006D0EF981F81337C0B301A20185E0769568
:105A80006795579547958A95D1F7292D6A817B812E
:105A9000C7010F900F900F90DF91CF911F910F9141
:105AA000FF90EF90DF90CF90BF90AF909F908F903E
:105AB0007F906F905F904F903F902F900C941124A7
:105AC0004BE050E0B5010E949043892B09F04ECF86
:105AD000D8018C9180FD4ACFCFCF381408F088CF01
